:03000000020AFCF5
:0C0AFC00787FE4F6D8FD758127020B43DB
:100CD8000B0CC0F9A4B0999282F88090FF020A0028
:100CE80000011700021A000002180000C1000208E3
:020CF8000000FA
:020A67008F23DB
:100A6900900000E4F527F526F525F524FF53890FB5
:100A7900438910F58DF58B2084FD3084FDD28EEFEE
:100A8900C3952350092084FD3084FD0F80F1C28E67
:100A9900AF8DEFAD8BF583EDF5827C007D0CFFAE5C
:100AA90083120800E4FD7B0AFAF9F8120C5E8E83C2
:100AB9008F82D3E5829400E58394004031AF23E42B
:100AC900FCFDFEFB7A8779937803120867C006C09C
:100AD90007E58225E0FFE58333AB07FAE4F9F8D0AF
:100AE90007D0061208F28F278E268D258C24AE2674
:020AF900AF2725
:010AFB0022D8
:100CFB005389F0438902758CFA758AFAD28C308D40
:060D0B00FDC28CC28D2226
:100CA20030801930810B7E003082037F0A227F0957
:100CB200227E003082037F08227F062230810B7E53
:100CC200003082037F04227F02223082057E007F71
:060CD2000122E4FEFF22F6
:03000B00020B885D
:100B8800C0E0C0F0C0D075D000C000C003C004C031
:050B980005C006C007C6
:100B9D00E5177006850A08850B09AE08AF097C00BC
:100BAD007D0A120812AB05AE08AF097C007D0A1252
:100BBD0008128E088F09AF03740C2FF8E6F590AF6D
:100BCD0017A8077401088002C333D8FCF5A0E517F8
:050BDD00045403F517AC
:100BE200D007D006D005D004D003D000D0D0D0F0AA
:030BF200D0E0321E
:03001B000209983F
:10099800C0E0C0F0C083C082C0D075D000C000C025
:1009A80001C002C003C004C005C006C00730003B38
:1009B800C2B0C200AE18AF19E4FCFD7B807A96790C
:1009C80098F81208677B007A1B79B77800120C5EDA
:1009D800C3E49FFFE49EFE74019DFDE49CFC78083F
:1009E8001209848F8DAE18AF198039D2B0D200AEFB
:1009F8001AAF1BE4FCFD7B807A967998F812086799
:100A08007B007A1B79B77800120C5EC3E49FFFE481
:100A18009EFE74019DFDE49CFC78081209848F8D6C
:100A2800AE1AAF1BE4FCFD7B807A967998F8120821
:100A3800677B007A1B79B77800120C5EC3E49FFFCE
:100A48008F8BC28FD007D006D005D004D003D00238
:0F0A5800D001D000D0D0D082D083D0F0D0E03207
:100BF500E4FFFEF521F522438902758CFA758AFA20
:100C0500D2A9D28C438910D2ABD28ED2AF120CA20C
:100C15007C007D0A1208008E218F22E5227807C309
:100C250033CE33CED8F9FF7C007D641208128E1ABC
:100C35008F1BC374649522FFE49521FEEF7807C3EB
:100C450033CE33CED8F9FF7C007D641208128E189E
:090C55008F197F01120A6780B4B7
:100B0800020BF5E493A3F8E493A34003F68001F203
:100B180008DFF48029E493A3F85407240CC8C333EE
:100B2800C4540F4420C8834004F456800146F6DFBD
:100B3800E4800B0102040810204080900CD8E47E69
:100B4800019360BCA3FF543F30E509541FFEE493B2
:100B5800A360010ECF54C025E060A840B8E493A379
:100B6800FAE493A3F8E493A3C8C582C8CAC583CAA4
:100B7800F0A3C8C582C8CAC583CADFE9DEE780BE5C
:010CFA0000F9
:10080000EF8DF0A4A8F0CF8CF0A428CE8DF0A42E0C
:02081000FE22C6
:10081200BC000BBE0029EF8DF084FFADF022E4CCCA
:10082200F875F008EF2FFFEE33FEEC33FCEE9DEC93
:10083200984005FCEE9DFE0FD5F0E9E4CEFD22EDD9
:10084200F8F5F0EE8420D21CFEADF075F008EF2F23
:10085200FFED33FD4007985006D5F0F222C398FD14
:050862000FD5F0EA22B1
:10086700E88FF0A4CC8BF0A42CFCE98EF0A42CFC30
:100877008AF0EDA42CFCEA8EF0A4CDA8F08BF0A4AE
:100887002DCC3825F0FDE98FF0A42CCD35F0FCEB0D
:100897008EF0A4FEA9F0EB8FF0A4CFC5F02ECD39D2
:0F08A700FEE43CFCEAA42DCE35F0FDE43CFC223F
:1008B60075F008758200EF2FFFEE33FECD33CDCCF9
:1008C60033CCC58233C5829BED9AEC99E58298407C
:1008D6000CF582EE9BFEED9AFDEC99FC0FD5F0D659
:1008E600E4CEFBE4CDFAE4CCF9A88222B800C1B983
:1008F6000059BA002DEC8BF084CFCECDFCE5F0CBC1
:10090600F97818EF2FFFEE33FEED33FDEC33FCEBF9
:1009160033FB10D703994004EB99FB0FD8E5E4F9B4
:10092600FA227818EF2FFFEE33FEED33FDEC33FCA1
:10093600C933C910D7059BE99A4007EC9BFCE99A95
:10094600F90FD8E0E4C9FAE4CCFB2275F010EF2FDA
:10095600FFEE33FEED33FDCC33CCC833C810D707DA
:100966009BEC9AE899400AED9BFDEC9AFCE899F815
:0E0976000FD5F0DAE4CDFBE4CCFAE4C8F922A8
:100C5E00C2D5E830E70FB2D5E4C39BFBE49AFAE4C1
:100C6E0099F9E498F8EC30E717B2D5120C94120803
:100C7E00F2E4C39BFBE49AFAE499F9E498F8800352
:100C8E001208F230D50DE4C39FFFE49EFEE49DFDF5
:040C9E00E49CFC22B4
:10098400E86010ECA2E713FCED13FDEE13FEEF1389
:04099400FFD8F02276
:00000001FF
