:03000000020C2FC0
:0C0C2F00787FE4F6D8FD75812F020C766A
:100E98000B0CC0F9A4B0999282F88090FF04080066
:030EA80000000047
:100EAC00758901758CF6758AF4D28C308DFDC28CE7
:030EBC00C28D22C2
:040DA4008E1F8F20EF
:100DA800752101E4F522752301FBFAAE1FAF207C03
:100DB800007D0A1209D78D22E5227010C3E5209420
:100DC8000AE51F940050058516908008740C2522AA
:100DD800F8E6F5908521A0AE1FAF207C007D0A12B1
:100DE80009D78E1F8F20E52125E0F5210BBB0001D7
:070DF8000AEB64044A70B429
:010DFF0022D1
:100EBF00758901758CFF758AACD28C308DFDC28C13
:030ECF00C28D22AF
:100E440030801930810B7E003082037F0A227F09B3
:100E5400227E003082037F08227F062230810B7EAF
:100E6400003082037F04227F02223082057E007FCD
:060E74000122E4FEFF2252
:070ED2007C007DF00209C560
:100D3A00E4F51FF520FFFEFDFCFBFA758910F58D21
:100D4A00F58B2084FD3084FDD28E2084FD3084FD15
:100D5A00C28EAF8DEFFEAD8BEDFFAC06E412090B30
:100D6A007B9A7A997999783F120800120944EF25FB
:100D7A00E0FFEE33AB07FAE4F9F8FF7E877D937C58
:100D8A0003120E00AA06AB07D3EB9460EA9409405B
:090D9A00047A097B60AE02AF038C
:010DA300222D
:03001B00020E7A58
:100E7A00C0E0C0D0E50B2401F50BE4350AF50AE41D
:0E0E8A003509F509E43508F508D0D0D0E0327E
:100B5700E4F527F526F525F524F52BF52AF529F5EE
:100B670028F52FF52EF52DF52CFBFA758910F58D47
:100B7700F58BF50BF50AF509F508D2ABD2AF208452
:100B8700FD3084FDD28E2084FD3084FDC28EE4FFCB
:100B9700FE7D01FCAB0BAA0AA909A808120A2CC002
:100BA70006C007AF8DEF7B00FA3395E0F9F8D00761
:100BB700D006EB2FFBEE3AFAED39F9EC38F8AF8BAC
:100BC700EB4FF52BEAF52AE9F529E8F528AF2BAE27
:100BD7002AAD29FCE41209067B9A7A997999783F1C
:100BE7001208001209448F2F8E2E8D2D8C2CE47F36
:100BF70002FEFDFCAB2FAA2EA92DA82C120A2CA8A9
:100C070004A905AA06AB077F007E877D937C0312A4
:100C17000AB7AA06AB07D3EB9460EA940940047AB3
:070C2700097B60AE02AF0380
:010C2E0022A3
:100CBB00E4F517F518F519F51AF51BF51CF582F582
:100CCB0083F51DF51E120E448E1D8F1ED3E5189451
:100CDB0000E51764809480501EE51A9400E51964B2
:100CEB008094805012851D17851E18C3740A9518A1
:100CFB00F51AE49517F519D3E5189400E5176480F8
:100D0B009480400B75B001E518151870021517D3B8
:100D1B00E51A9400E51964809480400BE4F5B0E586
:0F0D2B001A151A70021519120D3A120DA480969E
:10080000EC4D6011E8497017ED33EC3304600DE4F2
:10081000FCFFFEFD22E933E8330470F80209B01250
:10082000097B58046009E4CC248150062850090251
:1008300009BA2840030209B7C0E0EB4A7044B98006
:1008400006D0E0FB0209A6EF4E701CBD8008EBFF4E
:10085000EAFEE9FD80EBE98DF0A4FEE5F00208E98F
:10086000E9CDF9EAFEEBFFEF89F0A4FCE5F0CE89D3
:10087000F0A42EFFE435F0CD89F0A42DFEE435F090
:100880008067EF4E7005BD80D780C3EF8BF0A4ACBE
:10089000F0EE8BF0A42CFCE435F0F8EF8AF0A42CF9
:1008A000E5F038FCE433CB8DF0A42CFCE5F03BF80C
:1008B000EE8AF0A42CFCE5F038F8E433CF89F0A4FC
:1008C0002CFCE5F038CF3400CE89F0A42FFFE5F002
:1008D0003EFEE433C98DF0A42EFEE5F039CD8AF05A
:1008E000A42FFFE5F03EFEE43DFD33D0E0FB5007D2
:1008F0000BBB000F0209BAEC2CFCEF33FFEE33FE0A
:06090000ED33FD02099237
:1009060075F020800E75F010800575F0087D007E6C
:10091600007F003392D530D503120B49EC334010DB
:10092600EF33FFEE33FEED33FDEC33FCD5F0ED2275
:0E093600E5F0247EA2D513CC92E7CDCEFF22B1
:10094400EDD2E7CD33EC3392D524814006E4FFFEAB
:10095400FDFC22FCE4CFCECDCC24E0501174FF800A
:10096400EDC3CC13CCCD13CDCE13CECF13CF0470A7
:07097400F030D5DE020B4953
:10097B00E9D2E7C933E833F892D5EDD2E7CD33ECC2
:07098B0033FC5002B2D5223B
:10099200EC30E7100FBF000C0EBE00080DBD0004C6
:1009A2000BEB6014A2D5EB13FCED92E7FD2274FF72
:1009B200FCFDFEFF22E480F8A2D574FF13FC7D80CB
:0309C200E480EFDF
:100C3B00020CBBE493A3F8E493A34003F68001F208
:100C4B0008DFF48029E493A3F85407240CC8C333BA
:100C5B00C4540F4420C8834004F456800146F6DF89
:100C6B00E4800B0102040810204080900E98E47E73
:100C7B00019360BCA3FF543F30E509541FFEE4937E
:100C8B00A360010ECF54C025E060A840B8E493A345
:100C9B00FAE493A3F8E493A3C8C582C8CAC583CA70
:100CAB00F0A3C8C582C8CAC583CADFE9DEE780BE28
:010EAB000046
:1009C500EF8DF0A4A8F0CF8CF0A428CE8DF0A42E46
:0209D500FE2200
:1009D700BC000BBE0029EF8DF084FFADF022E4CC04
:1009E700F875F008EF2FFFEE33FEEC33FCEE9DECCD
:1009F700984005FCEE9DFE0FD5F0E9E4CEFD22ED13
:100A0700F8F5F0EE8420D21CFEADF075F008EF2F5C
:100A1700FFED33FD4007985006D5F0F222C398FD4D
:050A27000FD5F0EA22EA
:100A2C00E88FF0A4CC8BF0A42CFCE98EF0A42CFC69
:100A3C008AF0EDA42CFCEA8EF0A4CDA8F08BF0A4E7
:100A4C002DCC3825F0FDE98FF0A42CCD35F0FCEB46
:100A5C008EF0A4FEA9F0EB8FF0A4CFC5F02ECD390B
:0F0A6C00FEE43CFCEAA42DCE35F0FDE43CFC2278
:100A7B0075F008758200EF2FFFEE33FECD33CDCC32
:100A8B0033CCC58233C5829BED9AEC99E5829840B5
:100A9B000CF582EE9BFEED9AFDEC99FC0FD5F0D692
:100AAB00E4CEFBE4CDFAE4CCF9A88222B800C1B9BC
:100ABB000059BA002DEC8BF084CFCECDFCE5F0CBFA
:100ACB00F97818EF2FFFEE33FEED33FDEC33FCEB33
:100ADB0033FB10D703994004EB99FB0FD8E5E4F9EE
:100AEB00FA227818EF2FFFEE33FEED33FDEC33FCDB
:100AFB00C933C910D7059BE99A4007EC9BFCE99ACF
:100B0B00F90FD8E0E4C9FAE4CCFB2275F010EF2F13
:100B1B00FFEE33FEED33FDCC33CCC833C810D70713
:100B2B009BEC9AE899400AED9BFDEC9AFCE899F84E
:0E0B3B000FD5F0DAE4CDFBE4CCFAE4C8F922E1
:100E0000C2D5E830E70FB2D5E4C39BFBE49AFAE41D
:100E100099F9E498F8EC30E717B2D5120E36120AB9
:100E2000B7E4C39BFBE49AFAE499F9E498F88003E9
:100E3000120AB730D50DE4C39FFFE49EFEE49DFD8A
:040E4000E49CFC2210
:0E0B4900C3E49FFFE49EFEE49DFDE49CFC22BD
:00000001FF
