:03000000020800F3
:0C080000787FE4F6D8FD758119020847E6
:0D09E8000B08C0F9A4B0999282F88090FF2E
:1009C200758901758CFF758AACD28C308DFDC28C15
:0309D200C28D22B1
:10098C0030801930810B7E003082037F0A227F0970
:10099C00227E003082037F08227F062230810B7E6C
:1009AC00003082037F04227F02223082057E007F8A
:0609BC000122E4FEFF220F
:1009D500758901758CF6758AF4D28C308DFDC28CC3
:0309E500C28D229E
:04088C008E138F1424
:10089000751501E4F516751701FBFAAE13AF147C5C
:1008A000007D0A1208EB8D16E5167010C3E514944E
:1008B0000AE51394005005851290800874082516E7
:1008C000F8E6F5908515A01209D5AE13AF147C009B
:1008D0007D0A1208EB8E138F14E51525E0F5150B34
:0A08E000BB00010AEB64044A70B18A
:0108EA0022EB
:10094000E4FBFAF518F519FEFFF582F583FCFD12BC
:10095000098CC3740A9FF582E49EF583E4FAFBC315
:10096000EB9FEA9E500D75B0FF1209C20BBB000150
:100970000A80ECE4FAFBC3EB9582EA958350D0E45D
:0C098000F5B01209C20BBB00010A80EAAE
:10080C00020940E493A3F8E493A34003F68001F2B9
:10081C0008DFF48029E493A3F85407240CC8C333ED
:10082C00C4540F4420C8834004F456800146F6DFBC
:10083C00E4800B01020408102040809009E8E47E5B
:10084C00019360BCA3FF543F30E509541FFEE493B1
:10085C00A360010ECF54C025E060A840B8E493A378
:10086C00FAE493A3F8E493A3C8C582C8CAC583CAA3
:10087C00F0A3C8C582C8CAC583CADFE9DEE780BE5B
:0109F5000001
:1008EB00BC000BBE0029EF8DF084FFADF022E4CCF1
:1008FB00F875F008EF2FFFEE33FEEC33FCEE9DECBA
:10090B00984005FCEE9DFE0FD5F0E9E4CEFD22EDFF
:10091B00F8F5F0EE8420D21CFEADF075F008EF2F49
:10092B00FFED33FD4007985006D5F0F222C398FD3A
:05093B000FD5F0EA22D7
:00000001FF
