:0C0BCE000A080161DBF367B77BE1FFE779
:100B8E00E4FFFE758901758C3C758AB0D28C308D70
:100B9E00FDC28CC28D0FBF00010EEF64284E70E3B4
:010BAE002224
:06099F008D907FF47E0143
:1009A500EE7025EF249C6010249C6014249670182A
:1009B5007514007515018016751400751502800EE5
:1009C500751400751504800675140075150A758C67
:1009D5003C758AB0758901E4FFEFC39515E495145C
:0E09E500500CD28C308DFDC28CC28D0F80EB79
:0109F30022E1
:090BDB00300003D20122C2012204
:040B6400AD07AC0627
:100B68007BFEE4F583F582C3E5829DE5839C501501
:100B78008B90120B8EEB25E0FFEBC413131354017B
:050B88004FFBA380E219
:010B8D002245
:100AC900E4FDFC7B0174082DF8E6F59074082CF818
:100AD900E6F5A0EB60140DEDD39409401DE4FD0C7F
:100AE900ECD394094014E4FC8010ED700C7D09EC02
:0F0AF90070047C0980041C80011D120B8E80C6C6
:10094900E590F4FFB40A0050F7900959F828287384
:1009590002097702097B02097F02098302098702DA
:10096900098B02098F02099302099702099BAF08B3
:1009790080CEAF0980CAAF0A80C6AF0B80C2AF0C68
:1009890080BEAF0D80BAAF0E80B6AF0F80B2AF1088
:0609990080AEAF1180AA40
:100A85007D017C007B63900005E4F5A0E590B5034E
:100A95000B75A0FF120B8E0DBD00010CD3ED9582D9
:100AA500EC958340E4E590F46456FFE59064344F9B
:100AB500F590EB25E0FFEBC413131354014FFBE452
:040AC500FCFD80C5EF
:040B0800AD07AC0683
:100B0C007B01E4F583F582C3E5829DE5839C501956
:100B1C008B90EB25E0FFEBC413131354014FFB7FB9
:090B2C00C87E001209A5A380DEB9
:010B3500229D
:040BAF00AD07AC06DC
:100BB300E4FBFAC3EB9DEA9C50107590FF1209A168
:0A0BC300E4F5900BBB00010A80E985
:010BCD002205
:040B3600AD07AC0655
:100B3A007BAAE4F583F582C3E5829DE5839C50197F
:100B4A008B90EBC43333335480FFEBC3134FFB7FDB
:090B5A00C87E001209A5A380DE8B
:010B6300226F
:04088C008E128F1326
:100890007DFEE4FCFBFAF582F583C3E5829513E562
:1008A000839512504B12099FD3EB9408EA940040B1
:1008B000136304FFEC60051E7F0680047E007F004A
:1008C000AA06AB07BC0114EDC43333335480FFEDEB
:1008D000C3134FFDEB1B70151A8012ED25E0FFEDE1
:1008E000C413131354014FFD0BBB00010AA380AACC
:0108F00022E5
:0408F1008E128F13C1
:1008F5007DFEE4FCFBFAF582F583C3EB9513EA95DF
:1009050012504012099FD3E5829408E58394004074
:10091500036304FFBC0117EDC43333335480FFED8B
:10092500C3134FFDE582158270121583800EED25E8
:10093500E0FFEDC413131354014FFDA30BBB0001DE
:030945000A80B76E
:01094800228C
:040A3D00AD07AC064F
:100A41007B81E4FAF582F583C3E5829DE5839C50C1
:100A5100328B901209A1EB64186003BB810363021E
:100A6100FFEA600FEB25E0FFEBC413131354014FB2
:100A7100FB800DEBC43333335480FFEBC3134FFBC7
:030A8100A380C58A
:010A8400224F
:1009F4007F0A7E00120B367F0A7E00120BAF7F0A3D
:100A04007E00120B087F0A7E00120B647F0A7E00B0
:100A140012088C7F0A7E00120A3D7F0A7E001208AB
:100A2400F1120A85E59024FF9200E5A024FF9201CB
:090A3400120BDB120949020AC988
:03000000020800F3
:0C080000787FE4F6D8FD758120020847DF
:10080C000209F4E493A3F8E493A34003F68001F205
:10081C0008DFF48029E493A3F85407240CC8C333ED
:10082C00C4540F4420C8834004F456800146F6DFBC
:10083C00E4800B0102040810204080900BCEE47E73
:10084C00019360BCA3FF543F30E509541FFEE493B1
:10085C00A360010ECF54C025E060A840B8E493A378
:10086C00FAE493A3F8E493A3C8C582C8CAC583CAA3
:10087C00F0A3C8C582C8CAC583CADFE9DEE780BE5B
:010BDA00001A
:00000001FF
