:03000000020D9C52
:0C0D9C00787FE4F6D8FD758121020DE39C
:100F82000B0DC0F9A4B0999282F88090FF0218006C
:100F920000020B0000021E0000021C0000021A00E8
:0C0FA200320220003202080000010A00A8
:03001B00020E28AA
:100E2800C0E0C0F0C083C082C0D075D000C000C090
:0D0E380001C002C003C004C005C006C00711
:100E4500C3E509951BE508951A5004D2B08002C286
:100E5500B00509E50970020508C39521E508952047
:0F0E65004006750800750900AF0CAE0B120E8F1A
:100E7400D007D006D005D004D003D002D001D000D2
:0B0E8400D0D0D082D083D0F0D0E0327C
:03000B00020FCA17
:100FCA00C0E02084080519E51970020518D0E0323E
:100C9100120FAF120F1F7C007DF0120AFF8E1E8F04
:100CA1001F120F558E1C8F1D851C0B851D0CAC1E34
:100CB100AD1FE4120A7C7BCD7ACC794C783D1208C9
:100CC100F8C004C005C006C007AC1EAD1FE4120A7F
:100CD1007CD003D002D001D000120803C004C005AB
:100CE100C006C007AC1CAD1DE4120A7CA804A9050E
:100CF100AA06AB07D007D006D005D0041209FE50D2
:100D01000A051BE51B706C051A8068AC1EAD1FE45B
:100D1100120A7C7BCD7ACC794C783D1208F8C0045C
:100D2100C005C006C007AC1EAD1FE4120A7CD0038B
:100D3100D002D001D000120807C004C005C006C00F
:100D410007AC1CAD1DE4120A7CA804A905AA06ABD8
:100D510007D007D006D005D0041209FE6015401354
:100D6100D3E51B9401E51A94004008E51B151B709F
:100D710002151AD3E51B9521E51A95204006852019
:100D81001A85211BC3E51B9401E51A940040030257
:0B0D91000C94751A00751B01020C94F5
:100F5500E4AF19AE18F518F519FCFD7B607AEAF9CE
:100F6500F8120B66C006C007E52125E0FFE5203332
:0D0F7500AB07FAE4F9F8D007D006020EDB56
:100F1F0030801930810B7E003082037F0A227F09D7
:100F2F00227E003082037F08227F062230810B7ED3
:100F3F00003082037F04227F02223082057E007FF1
:060F4F000122E4FEFF2276
:040E8F00AB07AA06FD
:100E9300E50A25E025E0FF7E007401A80708800528
:100EA300C333CE33CED8F9FDAC06AE02AF03120B7B
:100EB300117C007D0A120B11AF05740D2FF8E6F5B6
:100EC30090AF0AA8077401088002C333D8FCF5A0C9
:070ED300E50A045403F50ACF
:010EDA0022F5
:100FAF00438902E4F58CF58AD2A9D28C4389017565
:0B0FBF008DFFF58BD2ABD28ED2AF229B
:10080000020AEAE86480F8E933E83360110460F032
:10081000ED33EC337009E8FCE9FDEAFEEBFF22045E
:1008200060DED3EB9FEA9EE99DE8C2E78CF0C2F759
:1008300095F0400CE8CCF8E9CDF9EACEFAEBCFFB25
:10084000120AB585D0F05804700320D5B3E80470BF
:10085000075002B2D5020AF492D5EC0460F7E4CC5A
:10086000C0E0C398F8603B94186008400DD0E0FBEE
:10087000020ACCE4FBFAC9FC8028E830E406E4C9AB
:10088000FBE4CAFCE830E305E4C9CACBFCE8540742
:100890006010F8C3E913F9EA13FAEB13FBEC13FC4D
:1008A000D8F130F52FC3E49CFCEF9BFFEE9AFEEDF0
:1008B00099FDD0E0FBEF4E4D4C701222DB03020A93
:1008C000F1EC2CFCEF33FFEE33FEED33FDED30E7C2
:1008D000EB020ACCEF2BFFEE3AFEED39FDD0E0FB48
:1008E00050130BBB0003020AF4ED13FDEE13FEEFF1
:0808F00013FFEC13FC020ACC1B
:1008F800EC4D6011E8497017ED33EC3304600DE4FA
:10090800FCFFFEFD22E933E8330470F8020AEA121C
:100918000AB558046009E4CC24815006285009021D
:100928000AF4284003020AF1C0E0EB4A7044B98097
:1009380006D0E0FB020AE0EF4E701CBD8008EBFF1A
:10094800EAFEE9FD80EBE98DF0A4FEE5F00209E19D
:10095800E9CDF9EAFEEBFFEF89F0A4FCE5F0CE89DA
:10096800F0A42EFFE435F0CD89F0A42DFEE435F097
:100978008067EF4E7005BD80D780C3EF8BF0A4ACC5
:10098800F0EE8BF0A42CFCE435F0F8EF8AF0A42C00
:10099800E5F038FCE433CB8DF0A42CFCE5F03BF813
:1009A800EE8AF0A42CFCE5F038F8E433CF89F0A403
:1009B8002CFCE5F038CF3400CE89F0A42FFFE5F009
:1009C8003EFEE433C98DF0A42EFEE5F039CD8AF061
:1009D800A42FFFE5F03EFEE43DFD33D0E0FB5007D9
:1009E8000BBB000F020AF4EC2CFCEF33FFEE33FED6
:0609F800ED33FD020ACC04
:1009FE0074F8CC6480CCC86480C8F58204604FC3A0
:100A0E00EB9FF5F0EA9E42F0E99D42F0E89C45F03E
:100A1E00603C501DE5825FFFE582D313CB5BCBF4C8
:100A2E002B5582FB50280ABA002409B900200880F1
:100A3E001DE5825BFBE582D313CF5FCFF4C3132F8B
:100A4E005582FF50090EBE00050DBD00010CC3EB13
:100A5E009FF5F0EA9E42F0E99D42F0E89C45F06079
:090A6E0007CC4820E701B3EC229B
:100A770075F020800E75F010800575F0087D007EFA
:100A8700007F003392D530D503120BB5EC334010FD
:100A9700EF33FFEE33FEED33FDEC33FCD5F0ED2203
:0E0AA700E5F0247EA2D513CC92E7CDCEFF223F
:100AB500E9D2E7C933E833F892D5EDD2E7CD33EC87
:070AC50033FC5002B2D52200
:100ACC00EC30E7100FBF000C0EBE00080DBD00048B
:100ADC000BEB6014A2D5EB13FCED92E7FD2274FF37
:100AEC00FCFDFEFF22E480F8A2D574FF13FC7D8090
:030AFC00E480EFA4
:100DA800020C91E493A3F8E493A34003F68001F2C4
:100DB80008DFF48029E493A3F85407240CC8C3334C
:100DC800C4540F4420C8834004F456800146F6DF1B
:100DD800E4800B0102040810204080900F82E47E1A
:100DE800019360BCA3FF543F30E509541FFEE49310
:100DF800A360010ECF54C025E060A840B8E493A3D7
:100E0800FAE493A3F8E493A3C8C582C8CAC583CA01
:100E1800F0A3C8C582C8CAC583CADFE9DEE780BEB9
:010FAE000042
:100AFF00EF8DF0A4A8F0CF8CF0A428CE8DF0A42E0B
:020B0F00FE22C4
:100B1100BC000BBE0029EF8DF084FFADF022E4CCC8
:100B2100F875F008EF2FFFEE33FEEC33FCEE9DEC91
:100B3100984005FCEE9DFE0FD5F0E9E4CEFD22EDD7
:100B4100F8F5F0EE8420D21CFEADF075F008EF2F21
:100B5100FFED33FD4007985006D5F0F222C398FD12
:050B61000FD5F0EA22AF
:100B6600E88FF0A4CC8BF0A42CFCE98EF0A42CFC2E
:100B76008AF0EDA42CFCEA8EF0A4CDA8F08BF0A4AC
:100B86002DCC3825F0FDE98FF0A42CCD35F0FCEB0B
:100B96008EF0A4FEA9F0EB8FF0A4CFC5F02ECD39D0
:0F0BA600FEE43CFCEAA42DCE35F0FDE43CFC223D
:100EDB00C2D5E830E70FB2D5E4C39BFBE49AFAE442
:100EEB0099F9E498F8EC30E717B2D5120F11120B01
:100EFB00FFE4C39BFBE49AFAE499F9E498F88003C6
:100F0B00120BFF30D50DE4C39FFFE49EFEE49DFD65
:040F1B00E49CFC2234
:0E0BB500C3E49FFFE49EFEE49DFDE49CFC2251
:100BC30075F008758200EF2FFFEE33FECD33CDCCE9
:100BD30033CCC58233C5829BED9AEC99E58298406C
:100BE3000CF582EE9BFEED9AFDEC99FC0FD5F0D649
:100BF300E4CEFBE4CDFAE4CCF9A88222B800C1B973
:100C03000059BA002DEC8BF084CFCECDFCE5F0CBB0
:100C1300F97818EF2FFFEE33FEED33FDEC33FCEBE9
:100C230033FB10D703994004EB99FB0FD8E5E4F9A4
:100C3300FA227818EF2FFFEE33FEED33FDEC33FC91
:100C4300C933C910D7059BE99A4007EC9BFCE99A85
:100C5300F90FD8E0E4C9FAE4CCFB2275F010EF2FCA
:100C6300FFEE33FEED33FDCC33CCC833C810D707CA
:100C73009BEC9AE899400AED9BFDEC9AFCE899F805
:0E0C83000FD5F0DAE4CDFBE4CCFAE4C8F92298
:00000001FF
